{"abi":[{"type":"constructor","inputs":[{"name":"_owner","type":"address","internalType":"address"}],"stateMutability":"nonpayable"},{"type":"receive","stateMutability":"payable"},{"type":"function","name":"addOpenPosition","inputs":[{"name":"_teamId","type":"uint256","internalType":"uint256"},{"name":"_openPositionId","type":"uint256","internalType":"uint256"},{"name":"_title","type":"string","internalType":"string"},{"name":"_position","type":"string","internalType":"string"},{"name":"_location","type":"string","internalType":"string"},{"name":"_description","type":"string","internalType":"string"}],"outputs":[],"stateMutability":"nonpayable"},{"type":"function","name":"addTestResult","inputs":[{"name":"_teamId","type":"uint256","internalType":"uint256"},{"name":"_playerId","type":"uint256","internalType":"uint256"},{"name":"_results","type":"string","internalType":"string"},{"name":"_status","type":"string","internalType":"string"}],"outputs":[],"stateMutability":"nonpayable"},{"type":"function","name":"createPlayer","inputs":[{"name":"_playerId","type":"uint256","internalType":"uint256"},{"name":"_documents","type":"string[]","internalType":"string[]"},{"name":"_badges","type":"tuple[]","internalType":"struct YourContract.Badge[]","components":[{"name":"id","type":"uint256","internalType":"uint256"},{"name":"token","type":"string","internalType":"string"},{"name":"symbol","type":"string","internalType":"string"}]},{"name":"_testResult","type":"string","internalType":"string"},{"name":"_openPositionId","type":"uint256","internalType":"uint256"}],"outputs":[],"stateMutability":"nonpayable"},{"type":"function","name":"createTeam","inputs":[{"name":"_teamId","type":"uint256","internalType":"uint256"},{"name":"_name","type":"string","internalType":"string"},{"name":"_badges","type":"tuple[]","internalType":"struct YourContract.Badge[]","components":[{"name":"id","type":"uint256","internalType":"uint256"},{"name":"token","type":"string","internalType":"string"},{"name":"symbol","type":"string","internalType":"string"}]}],"outputs":[],"stateMutability":"nonpayable"},{"type":"function","name":"getPlayer","inputs":[{"name":"_playerId","type":"uint256","internalType":"uint256"}],"outputs":[{"name":"","type":"tuple","internalType":"struct YourContract.Player","components":[{"name":"playerId","type":"uint256","internalType":"uint256"},{"name":"documents","type":"string[]","internalType":"string[]"},{"name":"badges","type":"tuple[]","internalType":"struct YourContract.Badge[]","components":[{"name":"id","type":"uint256","internalType":"uint256"},{"name":"token","type":"string","internalType":"string"},{"name":"symbol","type":"string","internalType":"string"}]},{"name":"testResult","type":"string","internalType":"string"},{"name":"openPositionId","type":"uint256","internalType":"uint256"}]}],"stateMutability":"view"},{"type":"function","name":"getTeam","inputs":[{"name":"_teamId","type":"uint256","internalType":"uint256"}],"outputs":[{"name":"","type":"tuple","internalType":"struct YourContract.Team","components":[{"name":"teamId","type":"uint256","internalType":"uint256"},{"name":"name","type":"string","internalType":"string"},{"name":"badges","type":"tuple[]","internalType":"struct YourContract.Badge[]","components":[{"name":"id","type":"uint256","internalType":"uint256"},{"name":"token","type":"string","internalType":"string"},{"name":"symbol","type":"string","internalType":"string"}]},{"name":"openPositions","type":"tuple[]","internalType":"struct YourContract.OpenPosition[]","components":[{"name":"id","type":"uint256","internalType":"uint256"},{"name":"title","type":"string","internalType":"string"},{"name":"description","type":"string","internalType":"string"},{"name":"position","type":"string","internalType":"string"},{"name":"location","type":"string","internalType":"string"}]},{"name":"testResults","type":"tuple[]","internalType":"struct YourContract.TestResults[]","components":[{"name":"playerId","type":"uint256","internalType":"uint256"},{"name":"timestamp","type":"uint256","internalType":"uint256"},{"name":"results","type":"string","internalType":"string"},{"name":"status","type":"string","internalType":"string"}]}]}],"stateMutability":"view"},{"type":"function","name":"owner","inputs":[],"outputs":[{"name":"","type":"address","internalType":"address"}],"stateMutability":"view"},{"type":"function","name":"players","inputs":[{"name":"","type":"uint256","internalType":"uint256"}],"outputs":[{"name":"playerId","type":"uint256","internalType":"uint256"},{"name":"testResult","type":"string","internalType":"string"},{"name":"openPositionId","type":"uint256","internalType":"uint256"}],"stateMutability":"view"},{"type":"function","name":"teams","inputs":[{"name":"","type":"uint256","internalType":"uint256"}],"outputs":[{"name":"teamId","type":"uint256","internalType":"uint256"},{"name":"name","type":"string","internalType":"string"}],"stateMutability":"view"},{"type":"function","name":"withdraw","inputs":[],"outputs":[],"stateMutability":"nonpayable"},{"type":"event","name":"OpenPositionCreated","inputs":[{"name":"teamId","type":"uint256","indexed":true,"internalType":"uint256"},{"name":"openPositionId","type":"uint256","indexed":true,"internalType":"uint256"}],"anonymous":false},{"type":"event","name":"PlayerCreated","inputs":[{"name":"playerId","type":"uint256","indexed":true,"internalType":"uint256"}],"anonymous":false},{"type":"event","name":"TeamCreated","inputs":[{"name":"teamId","type":"uint256","indexed":true,"internalType":"uint256"}],"anonymous":false}],"bytecode":{"object":"0x60a0604052348015600f57600080fd5b50604051611cf5380380611cf5833981016040819052602c91603c565b6001600160a01b0316608052606a565b600060208284031215604d57600080fd5b81516001600160a01b0381168114606357600080fd5b9392505050565b608051611c626100936000396000818161016d0152818161090e01526109740152611c626000f3fe6080604052600436106100945760003560e01c80638da5cb5b116100595780638da5cb5b1461015b5780638eaedbbe146101a7578063b0781ac4146101c7578063e55ae4e8146101e7578063f71d96cb1461021457600080fd5b80628e0f1b146100a05780633ccfd60b146100d65780633ed2b77a146100ed5780636b302d401461011b57806380d9f5741461013b57600080fd5b3661009b57005b600080fd5b3480156100ac57600080fd5b506100c06100bb366004611242565b610243565b6040516100cd91906113b9565b60405180910390f35b3480156100e257600080fd5b506100eb610903565b005b3480156100f957600080fd5b5061010d610108366004611242565b610a2d565b6040516100cd9291906114ec565b34801561012757600080fd5b506100eb610136366004611710565b610ad1565b34801561014757600080fd5b506100eb610156366004611780565b610ba3565b34801561016757600080fd5b5061018f7f000000000000000000000000000000000000000000000000000000000000000081565b6040516001600160a01b0390911681526020016100cd565b3480156101b357600080fd5b506100eb6101c236600461184e565b610c85565b3480156101d357600080fd5b506100eb6101e23660046118c8565b610d14565b3480156101f357600080fd5b50610207610202366004611242565b610e41565b6040516100cd91906119e4565b34801561022057600080fd5b5061023461022f366004611242565b611197565b6040516100cd93929190611aa6565b6102756040518060a0016040528060008152602001606081526020016060815260200160608152602001606081525090565b600082815260016020818152604092839020835160a08101909452805484529182018054918401916102a690611acf565b80601f01602080910402602001604051908101604052809291908181526020018280546102d290611acf565b801561031f5780601f106102f45761010080835404028352916020019161031f565b820191906000526020600020905b81548152906001019060200180831161030257829003601f168201915b5050505050815260200160028201805480602002602001604051908101604052809291908181526020016000905b828210156104ad57838290600052602060002090600302016040518060600160405290816000820154815260200160018201805461038a90611acf565b80601f01602080910402602001604051908101604052809291908181526020018280546103b690611acf565b80156104035780601f106103d857610100808354040283529160200191610403565b820191906000526020600020905b8154815290600101906020018083116103e657829003601f168201915b5050505050815260200160028201805461041c90611acf565b80601f016020809104026020016040519081016040528092919081815260200182805461044890611acf565b80156104955780601f1061046a57610100808354040283529160200191610495565b820191906000526020600020905b81548152906001019060200180831161047857829003601f168201915b5050505050815250508152602001906001019061034d565b50505050815260200160038201805480602002602001604051908101604052809291908181526020016000905b8282101561075e57838290600052602060002090600502016040518060a00160405290816000820154815260200160018201805461051790611acf565b80601f016020809104026020016040519081016040528092919081815260200182805461054390611acf565b80156105905780601f1061056557610100808354040283529160200191610590565b820191906000526020600020905b81548152906001019060200180831161057357829003601f168201915b505050505081526020016002820180546105a990611acf565b80601f01602080910402602001604051908101604052809291908181526020018280546105d590611acf565b80156106225780601f106105f757610100808354040283529160200191610622565b820191906000526020600020905b81548152906001019060200180831161060557829003601f168201915b5050505050815260200160038201805461063b90611acf565b80601f016020809104026020016040519081016040528092919081815260200182805461066790611acf565b80156106b45780601f10610689576101008083540402835291602001916106b4565b820191906000526020600020905b81548152906001019060200180831161069757829003601f168201915b505050505081526020016004820180546106cd90611acf565b80601f01602080910402602001604051908101604052809291908181526020018280546106f990611acf565b80156107465780601f1061071b57610100808354040283529160200191610746565b820191906000526020600020905b81548152906001019060200180831161072957829003601f168201915b505050505081525050815260200190600101906104da565b50505050815260200160048201805480602002602001604051908101604052809291908181526020016000905b828210156108f5578382906000526020600020906004020160405180608001604052908160008201548152602001600182015481526020016002820180546107d290611acf565b80601f01602080910402602001604051908101604052809291908181526020018280546107fe90611acf565b801561084b5780601f106108205761010080835404028352916020019161084b565b820191906000526020600020905b81548152906001019060200180831161082e57829003601f168201915b5050505050815260200160038201805461086490611acf565b80601f016020809104026020016040519081016040528092919081815260200182805461089090611acf565b80156108dd5780601f106108b2576101008083540402835291602001916108dd565b820191906000526020600020905b8154815290600101906020018083116108c057829003601f168201915b5050505050815250508152602001906001019061078b565b505050915250909392505050565b336001600160a01b037f000000000000000000000000000000000000000000000000000000000000000016146109705760405162461bcd60e51b815260206004820152600d60248201526c2737ba103a34329027bbb732b960991b60448201526064015b60405180910390fd5b60007f00000000000000000000000000000000000000000000000000000000000000006001600160a01b03164760405160006040518083038185875af1925050503d80600081146109dd576040519150601f19603f3d011682016040523d82523d6000602084013e6109e2565b606091505b5050905080610a2a5760405162461bcd60e51b81526020600482015260146024820152732330b4b632b2103a379039b2b7321022ba3432b960611b6044820152606401610967565b50565b600160208190526000918252604090912080549181018054610a4e90611acf565b80601f0160208091040260200160405190810160405280929190818152602001828054610a7a90611acf565b8015610ac75780601f10610a9c57610100808354040283529160200191610ac7565b820191906000526020600020905b815481529060010190602001808311610aaa57829003601f168201915b5050505050905082565b6000838152600160208190526040909120848155908101610af28482611b58565b5060005b8251811015610b715781600201838281518110610b1557610b15611c16565b6020908102919091018101518254600181810185556000948552938390208251600390920201908155918101519092820190610b519082611b58565b5060408201516002820190610b669082611b58565b505050600101610af6565b5060405184907f015c069c0e6438bd2d98e0c7b6526d4f7596120b3a6ac20fd43f2aa00450b81390600090a250505050565b6000868152600160208181526040808420815160a0810183528a81528084018a815292810187905260608101899052608081018890526003820180548087018255908752939095208551600590940201928355905190939283929190820190610c0c9082611b58565b5060408201516002820190610c219082611b58565b5060608201516003820190610c369082611b58565b5060808201516004820190610c4b9082611b58565b505060405188915089907f05f9fc5cf11bfad95c071a0e1f085ece17a0253ade37d559b5c938ec87cde2b090600090a35050505050505050565b6000848152600160208181526040808420815160808101835288815242818501908152928101888152606082018890526004808401805480890182559089529590972082519590970290960193845591519383019390935592519192918291906002820190610cf49082611b58565b5060608201516003820190610d099082611b58565b505050505050505050565b6000858152602081905260408120905b8551811015610d755781600101868281518110610d4357610d43611c16565b60209081029190910181015182546001810184556000938452919092200190610d6c9082611b58565b50600101610d24565b5060005b8451811015610df45781600201858281518110610d9857610d98611c16565b6020908102919091018101518254600181810185556000948552938390208251600390920201908155918101519092820190610dd49082611b58565b5060408201516002820190610de99082611b58565b505050600101610d79565b5085815560038101610e068482611b58565b506004810182905560405186907fea32adbbdbccdd573f8364fe7e72e007b5b5af0fe12e4e7f6c76536470a2d50990600090a2505050505050565b610e736040518060a0016040528060008152602001606081526020016060815260200160608152602001600081525090565b600082815260208181526040808320815160a081018352815481526001820180548451818702810187019095528085529195929486810194939192919084015b82821015610f5f578382906000526020600020018054610ed290611acf565b80601f0160208091040260200160405190810160405280929190818152602001828054610efe90611acf565b8015610f4b5780601f10610f2057610100808354040283529160200191610f4b565b820191906000526020600020905b815481529060010190602001808311610f2e57829003601f168201915b505050505081526020019060010190610eb3565b50505050815260200160028201805480602002602001604051908101604052809291908181526020016000905b828210156110ec578382906000526020600020906003020160405180606001604052908160008201548152602001600182018054610fc990611acf565b80601f0160208091040260200160405190810160405280929190818152602001828054610ff590611acf565b80156110425780601f1061101757610100808354040283529160200191611042565b820191906000526020600020905b81548152906001019060200180831161102557829003601f168201915b5050505050815260200160028201805461105b90611acf565b80601f016020809104026020016040519081016040528092919081815260200182805461108790611acf565b80156110d45780601f106110a9576101008083540402835291602001916110d4565b820191906000526020600020905b8154815290600101906020018083116110b757829003601f168201915b50505050508152505081526020019060010190610f8c565b50505050815260200160038201805461110490611acf565b80601f016020809104026020016040519081016040528092919081815260200182805461113090611acf565b801561117d5780601f106111525761010080835404028352916020019161117d565b820191906000526020600020905b81548152906001019060200180831161116057829003601f168201915b505050505081526020016004820154815250509050919050565b600060208190529081526040902080546003820180549192916111b990611acf565b80601f01602080910402602001604051908101604052809291908181526020018280546111e590611acf565b80156112325780601f1061120757610100808354040283529160200191611232565b820191906000526020600020905b81548152906001019060200180831161121557829003601f168201915b5050505050908060040154905083565b60006020828403121561125457600080fd5b5035919050565b6000815180845260005b8181101561128157602081850181015186830182015201611265565b506000602082860101526020601f19601f83011685010191505092915050565b600082825180855260208501945060208160051b8301016020850160005b8381101561132257601f198584030188528151805184526020810151606060208601526112ef606086018261125b565b905060408201519150848103604086015261130a818361125b565b60209a8b019a909550939093019250506001016112bf565b50909695505050505050565b600082825180855260208501945060208160051b8301016020850160005b8381101561132257601f1985840301885281518051845260208101516020850152604081015160806040860152611386608086018261125b565b90506060820151915084810360608601526113a1818361125b565b60209a8b019a9095509390930192505060010161134c565b60208152815160208201526000602083015160a060408401526113df60c084018261125b565b90506040840151601f198483030160608501526113fc82826112a1565b6060860151858203601f190160808701528051808352919350602090810192508084019190600582901b85010160005b828110156114c257601f19868303018452845180518352602081015160a0602085015261145c60a085018261125b565b905060408201518482036040860152611475828261125b565b9150506060820151848203606086015261148f828261125b565b9150506080820151915083810360808501526114ab818361125b565b60209788019796909601959350505060010161142c565b506080880151878203601f190160a089015294506114e0818661132e565b98975050505050505050565b828152604060208201526000611505604083018461125b565b949350505050565b634e487b7160e01b600052604160045260246000fd5b604051606081016001600160401b03811182821017156115455761154561150d565b60405290565b604051601f8201601f191681016001600160401b03811182821017156115735761157361150d565b604052919050565b600082601f83011261158c57600080fd5b81356001600160401b038111156115a5576115a561150d565b6115b8601f8201601f191660200161154b565b8181528460208386010111156115cd57600080fd5b816020850160208301376000918101602001919091529392505050565b60006001600160401b038211156116035761160361150d565b5060051b60200190565b600082601f83011261161e57600080fd5b813561163161162c826115ea565b61154b565b8082825260208201915060208360051b86010192508583111561165357600080fd5b602085015b838110156117065780356001600160401b0381111561167657600080fd5b86016060818903601f1901121561168c57600080fd5b611694611523565b6020820135815260408201356001600160401b038111156116b457600080fd5b6116c38a60208386010161157b565b60208301525060608201356001600160401b038111156116e257600080fd5b6116f18a60208386010161157b565b60408301525084525060209283019201611658565b5095945050505050565b60008060006060848603121561172557600080fd5b8335925060208401356001600160401b0381111561174257600080fd5b61174e8682870161157b565b92505060408401356001600160401b0381111561176a57600080fd5b6117768682870161160d565b9150509250925092565b60008060008060008060c0878903121561179957600080fd5b863595506020870135945060408701356001600160401b038111156117bd57600080fd5b6117c989828a0161157b565b94505060608701356001600160401b038111156117e557600080fd5b6117f189828a0161157b565b93505060808701356001600160401b0381111561180d57600080fd5b61181989828a0161157b565b92505060a08701356001600160401b0381111561183557600080fd5b61184189828a0161157b565b9150509295509295509295565b6000806000806080858703121561186457600080fd5b843593506020850135925060408501356001600160401b0381111561188857600080fd5b6118948782880161157b565b92505060608501356001600160401b038111156118b057600080fd5b6118bc8782880161157b565b91505092959194509250565b600080600080600060a086880312156118e057600080fd5b8535945060208601356001600160401b038111156118fd57600080fd5b8601601f8101881361190e57600080fd5b803561191c61162c826115ea565b8082825260208201915060208360051b85010192508a83111561193e57600080fd5b602084015b8381101561197f5780356001600160401b0381111561196157600080fd5b6119708d60208389010161157b565b84525060209283019201611943565b50965050505060408601356001600160401b0381111561199e57600080fd5b6119aa8882890161160d565b93505060608601356001600160401b038111156119c657600080fd5b6119d28882890161157b565b95989497509295608001359392505050565b60208152600060c0820183516020840152602084015160a0604085015281815180845260e08601915060e08160051b870101935060208301925060005b81811015611a525760df19878603018352611a3d85855161125b565b94506020938401939290920191600101611a21565b505050506040840151838203601f19016060850152611a7182826112a1565b9150506060840151601f19848303016080850152611a8f828261125b565b915050608084015160a08401528091505092915050565b838152606060208201526000611abf606083018561125b565b9050826040830152949350505050565b600181811c90821680611ae357607f821691505b602082108103611b0357634e487b7160e01b600052602260045260246000fd5b50919050565b601f821115611b5357806000526020600020601f840160051c81016020851015611b305750805b601f840160051c820191505b81811015611b505760008155600101611b3c565b50505b505050565b81516001600160401b03811115611b7157611b7161150d565b611b8581611b7f8454611acf565b84611b09565b6020601f821160018114611bb95760008315611ba15750848201515b600019600385901b1c1916600184901b178455611b50565b600084815260208120601f198516915b82811015611be95787850151825560209485019460019092019101611bc9565b5084821015611c075786840151600019600387901b60f8161c191681555b50505050600190811b01905550565b634e487b7160e01b600052603260045260246000fdfea26469706673582212209585ed4a3aea89c5794ce59de396220b7657ac01bc929d1dd806ba69d72d3ba164736f6c634300081b0033","linkReferences":{}},"methodIdentifiers":{"addOpenPosition(uint256,uint256,string,string,string,string)":"80d9f574","addTestResult(uint256,uint256,string,string)":"8eaedbbe","createPlayer(uint256,string[],(uint256,string,string)[],string,uint256)":"b0781ac4","createTeam(uint256,string,(uint256,string,string)[])":"6b302d40","getPlayer(uint256)":"e55ae4e8","getTeam(uint256)":"008e0f1b","owner()":"8da5cb5b","players(uint256)":"f71d96cb","teams(uint256)":"3ed2b77a","withdraw()":"3ccfd60b"},"id":0}